:100000000C942A000C9469000C9480000C943C0021
:100010000C943C000C943C000C943E000C943C006E
:100020000C943C000C943C000C943C000C943C0060
:100030000C943C000C943C000C943C000C943C0050
:100040000C943C000C943C000C948F000C943C00ED
:100050000C943C0011241FBECFE5D4E0DEBFCDBF21
:1000600010E0A0E6B0E001C01D92A336B107E1F7B1
:100070000E94C4000C9436010C9400001F920F9251
:100080000FB60F9211248F93809160008F5F809341
:1000900060008C3339F410926000809161008F5FB2
:1000A00080936100809161008C3339F4109261007B
:1000B000809162008F5F809362008091620088313E
:1000C00011F4109262008F910F900FBE0F901F904D
:1000D00018951F920F920FB60F9211248F931092C2
:1000E000600010926100109262001DBC1CBC8EB5B5
:1000F00084608EBD8F910F900FBE0F901F9018954A
:100100001F920F920FB60F9211248F938EB58B7F93
:100110008EBD8F910F900FBE0F901F9018951F925C
:100120000F920FB60F9211248F938EB584608EBDFF
:100130008F910F900FBE0F901F9018958CE08FBD80
:100140008EBD1DBC1CBC83E49FE09BBD8ABD80E1CD
:1001500089BF08958B9885B78C6085BF8BB7806801
:100160008BBF0895BA98C29A84B78F7B84BF8BB730
:1001700080628BBF08958A98929A85B7826085BF06
:100180008BB780648BBF089580E88FBF8CE08FBDF4
:100190008EBD1DBC1CBC83E49FE09BBD8ABD80E17D
:1001A00089BF0E94BB000E94AA000E94B2008FE398
:1001B0008ABB8FEF8BBB8FE084BB15BA81E08A9539
:1001C000F1F720916000822F6AE00E942A01F92F46
:1001D000822F0E942A01E82F20916100822F0E9425
:1001E0002A01592F822F0E942A01482F2091620054
:1001F000822F0E942A01392F822F0E942A01282F44
:1002000091E09BBBF5BB892F8A95F1F78BB3880FE3
:100210008BBBE5BB892F8A95F1F78BB3880F8BBB1E
:1002200055BB892F8A95F1F78BB3880F8BBB45BBE4
:10023000892F8A95F1F78BB3880F8BBB35BB892F3C
:100240008A95F1F78BB3880F8BBB25BB892F8A95D5
:10025000F1F7D7CF991B79E004C0991F961708F0E2
:10026000961B881F7A95C9F780950895F894FFCF5B
:00000001FF
