:100000000C942A000C943F000C943F000C943F0089
:100010000C943F000C943F000C943F000C943F0064
:100020000C943F000C943F000C943F000C943F0054
:100030000C943F000C943F000C943F000C943F0044
:100040000C943F000C943F000C943F000C943F0034
:100050000C943F0011241FBECFE5D8E0DEBFCDBF1A
:1000600011E0A0E6B0E0E6E2F5E102C005900D92F5
:10007000A838B107D9F70E9470090C94910A0C9422
:100080000000EF92FF920F931F937B018C0120E001
:1000900030E040E05FE40E94BD0388238CF0C8019B
:1000A000B70120E030E040E05FE40E94B9010E9427
:1000B000ED039B01AC01205030404040504806C049
:1000C000C801B7010E94ED039B01AC01B901CA014F
:1000D0001F910F91FF90EF900895A0E0B0E0E3E74B
:1000E000F0E00C94150ADC012B01FA019C9192308E
:1000F00008F439C1EB018881823008F433C19430AF
:1001000069F4843009F02FC111969C91119789816F
:10011000981709F428C1A0E8B0E025C1843009F49B
:1001200021C18230A9F4923009F01DC19A01AD01BC
:1001300088E0EA010990AE01E90109929E0181502F
:10014000C1F7E201898111969C918923818308C1BD
:10015000923009F407C112962D903C901397EB0151
:100160008A819B811496AD90BD90CD90DC901797BD
:10017000EC80FD800E811F819101281B390BB90194
:1001800037FF04C066277727621B730B6032710547
:100190000CF061C0121613066CF537014801062EEB
:1001A00004C096948794779467940A94D2F721E0D8
:1001B00030E040E050E004C0220F331F441F551FC1
:1001C0006A95D2F721503040404050402E213F21C7
:1001D00040235123211531054105510521F021E02E
:1001E00030E040E050E079018A01E628F72808294C
:1001F00019293CC0232BD1F1260E371E35014601AB
:10020000062E04C096948794779467940A94D2F744
:1002100021E030E040E050E004C0220F331F441FD3
:10022000551F6A95D2F721503040404050402A2156
:100230003B214C215D21211531054105510521F05E
:1002400021E030E040E050E059016A01A628B728DB
:10025000C828D9280BC0821593052CF01C01AA24AC
:10026000BB24650103C0EE24FF24870111969C91F5
:10027000D20111968C91981709F445C0992339F051
:10028000A80197012A193B094C095D0906C0A6017E
:1002900095012E193F09400B510B57FD08C01182E3
:1002A0003382228224833583468357831DC081E0B5
:1002B00081833382228288279927DC01821B930B5A
:1002C000A40BB50B84839583A683B7830DC0220F3F
:1002D000331F441F551F24833583468357838281F0
:1002E000938101979383828324813581468157814D
:1002F000DA01C9010197A109B1098F5F9F4FAF4F83
:10030000BF4328F30BC0918333822282EA0CFB1C8B
:100310000C1D1D1DE482F5820683178383E0808314
:10032000248135814681578157FF1AC0C901AA2708
:1003300097FDA095BA2F81709070A070B0705695FF
:10034000479537952795822B932BA42BB52B848328
:100350009583A683B7838281938101969383828359
:10036000DF0101C0D201CD01CDB7DEB7E2E10C94CF
:10037000310AA0E2B0E0EFEBF1E00C94210A6983CE
:100380007A838B839C832D833E834F835887E9E058
:10039000EE2EF12CEC0EFD1ECE010196B7010E944F
:1003A000DE058E010F5E1F4FCE010596B8010E943B
:1003B000DE058A8991E089278A8BC701B801AE01E1
:1003C000475E5F4F0E946D000E940905A096E6E01F
:1003D0000C943D0AA0E2B0E0E0EFF1E00C94210AB9
:1003E00069837A838B839C832D833E834F835887D5
:1003F000F9E0EF2EF12CEC0EFD1ECE010196B701B7
:100400000E94DE058E010F5E1F4FCE010596B801DA
:100410000E94DE05C701B801AE01475E5F4F0E9432
:100420006D000E940905A096E6E00C943D0AA0E24A
:10043000B0E0EDE1F2E00C94150A69837A838B83D6
:100440009C832D833E834F835887CE010196BE0146
:10045000675F7F4F0E94DE05CE010596BE016F5E8D
:100460007F4F0E94DE059985923088F0898982301D
:10047000C8F0943019F4823051F404C0843029F467
:10048000923081F480E890E0C6C0923049F420E0D8
:100490009A858A89981321E02A87CE010996BBC0E4
:1004A000823049F420E09A858A89981321E02A8BCA
:1004B000CE014196B0C02D843E844F8458886D880B
:1004C0007E888F88988CEE24FF248701AA24BB2481
:1004D000650140E050E060E070E0E0E0F0E0C10184
:1004E00081709070892BE9F0E60CF71C081D191D2E
:1004F0009A01AB012A0D3B1D4C1D5D1D80E090E073
:10050000A0E0B0E0E614F7040805190520F481E046
:1005100090E0A0E0B0E0BA01A901480F591F6A1F9E
:100520007B1FAA0CBB1CCC1CDD1C97FE08C081E005
:1005300090E0A0E0B0E0A82AB92ACA2ADB2A3196C6
:10054000E032F10549F0660C771C881C991C569422
:10055000479437942794C3CFFA85EA892B893C893D
:100560008B859C85280F391F2E5F3F4F17C0CA010E
:1005700081709070892B61F016950795F794E79438
:1005800080E090E0A0E0B0E8E82AF92A0A2B1B2BD3
:1005900076956795579547952F5F3F4F77FDE7CF46
:1005A0000CC0440F551F661F771F17FD4160EE0CEE
:1005B000FF1C001F111F21503040403090E05907B0
:1005C00090E0690790E4790760F32B8F3C8FDB01A3
:1005D000CA018F779070A070B07080349105A1052A
:1005E000B10561F447FD0AC0E114F10401051105EC
:1005F00029F0405C5F4F6F4F7F4F40781A8EFE1797
:1006000011F081E08A8F4D8F5E8F6F8F78A383E02A
:10061000898FCE0149960E940905A096E2E10C94CB
:10062000310AA8E1B0E0E7E1F3E00C941D0A698328
:100630007A838B839C832D833E834F835887B9E0D5
:10064000EB2EF12CEC0EFD1ECE010196B7010E949F
:10065000DE058E010F5E1F4FCE010596B8010E9488
:10066000DE052985223008F47EC03989323010F445
:10067000B8017CC08A859A8989278A87243011F03D
:10068000223031F4231709F06EC060E870E06EC0CC
:10069000343039F41D861E861F86188A1C861B86F8
:1006A00004C0323021F484E08987B7015FC02B8514
:1006B0003C858B899C89281B390B3C872B87ED84D3
:1006C000FE840F851889AD88BE88CF88D88CEA143F
:1006D000FB040C051D0540F4EE0CFF1C001F111F50
:1006E000215030403C872B8720E030E040E050E054
:1006F00080E090E0A0E0B0E460E070E0EA14FB0489
:100700000C051D0540F0282B392B4A2B5B2BEA18D2
:10071000FB080C091D09B695A79597958795EE0CD2
:10072000FF1C001F111F6F5F7F4F6F31710531F785
:10073000DA01C9018F779070A070B0708034910594
:10074000A105B10561F427FD0AC0E114F10401051A
:10075000110529F0205C3F4F4F4F5F4F20782D87C8
:100760003E874F87588BBE01675F7F4FCB010E944A
:1007700009056896EAE00C94390AA8E1B0E0E3ECD8
:10078000F3E00C94210A69837A838B839C832D8305
:100790003E834F83588789E0E82EF12CEC0EFD1E36
:1007A000CE010196B7010E94DE058E010F5E1F4F3C
:1007B000CE010596B8010E94DE058985823040F0A1
:1007C0008989823028F0C701B8010E94560601C00D
:1007D0008FEF6896E6E00C943D0AACE0B0E0E3EF02
:1007E000F3E00C94250A69837A838B839C83CE0182
:1007F0000196BE016B5F7F4F0E94DE058D818230C6
:1008000061F1823050F1843021F48E81882351F1DE
:100810002EC02F81388537FD20C06E812F313105E4
:100820001CF06623F9F023C08EE190E0821B930B4D
:1008300029853A854B855C8504C056954795379543
:1008400027958A95D2F76623B1F05095409530955B
:1008500021953F4F4F4F5F4F0EC020E030E040E00A
:1008600050E009C02FEF3FEF4FEF5FE704C020E0FB
:1008700030E040E050E8B901CA012C96E2E00C9467
:10088000410AA8E0B0E0E7E4F4E00C941D0A7B0123
:100890008C01611571058105910519F482E0898348
:1008A00060C083E089838EE1C82ED12CDC82CB82AC
:1008B000ED82FE820F831887C801B7010E94BA0437
:1008C000FC013197F7FF3BC0222733272E1B3F0B3C
:1008D00057016801022E04C0D694C794B794A79418
:1008E0000A94D2F740E050E060E070E081E090E0F0
:1008F000A0E0B0E004C0880F991FAA1FBB1F2A9573
:10090000D2F70197A109B1098E219F21A023B1231C
:100910000097A105B10521F041E050E060E070E0F2
:100920004A295B296C297D294D835E836F837887F3
:100930008EE190E08E1B9F0B9C838B8312C03097BF
:1009400081F00E2E04C0EE0CFF1C001F111F0A9434
:10095000D2F7ED82FE820F831887CE1ADF0ADC827F
:10096000CB821A82CE0101960E9409052896EAE000
:100970000C94390AEF92FF920F931F937B018C0125
:1009800080E0E81680E0F80681E0080780E01807BC
:1009900088F48FEFE816F1040105110531F028F015
:1009A00088E090E0A0E0B0E017C080E090E0A0E038
:1009B000B0E012C080E0E81680E0F80680E00807AA
:1009C00081E0180728F088E190E0A0E0B0E004C0E2
:1009D00080E190E0A0E0B0E020E230E040E050E0D4
:1009E000281B390B4A0B5B0B04C016950795F7942F
:1009F000E7948A95D2F7F701E857FF4F8081281BCB
:100A0000310941095109C9011F910F91FF90EF90E0
:100A10000895DF92EF92FF920F931F93FC01E48001
:100A2000F58006811781D1808081823048F480E092
:100A300090E0A0E1B0E0E82AF92A0A2B1B2BA5C020
:100A4000843009F49FC0823021F4EE24FF24870112
:100A500005C0E114F1040105110519F4E0E0F0E02E
:100A600096C0628173819FEF623879070CF05BC09A
:100A700022E83FEF261B370B2A3131052CF020E00E
:100A800030E040E050E02AC0B801A701022E04C0C7
:100A900076956795579547950A94D2F781E090E04F
:100AA000A0E0B0E004C0880F991FAA1FBB1F2A95C1
:100AB000D2F70197A109B1098E219F21A023B1236B
:100AC0000097A105B10521F081E090E0A0E0B0E041
:100AD0009A01AB01282B392B4A2B5B2BDA01C90178
:100AE0008F779070A070B07080349105A105B1052A
:100AF00039F427FF09C0205C3F4F4F4F5F4F04C0C0
:100B0000215C3F4F4F4F5F4FE0E0F0E02030A0E02E
:100B10003A07A0E04A07A0E45A0710F0E1E0F0E04D
:100B200079018A0127C06038710564F5FB01E1583D
:100B3000FF4FD801C7018F779070A070B0708034DC
:100B40009105A105B10539F4E7FE0DC080E490E000
:100B5000A0E0B0E004C08FE390E0A0E0B0E0E80ED9
:100B6000F91E0A1F1B1F17FF05C016950795F7945E
:100B7000E794319687E016950795F794E7948A9560
:100B8000D1F705C0EE24FF248701EFEFF0E06E2FD0
:100B9000679566276795902F9F77D794DD24D79424
:100BA0008E2F8695492F462B582F5D29B701CA01F4
:100BB0001F910F91FF90EF90DF900895FC01DB01F2
:100BC000408151812281622F6F7770E0221F22279E
:100BD000221F9381892F880F822B282F30E0991FA5
:100BE0009927991F11969C93119721153105A9F505
:100BF000411551056105710511F482E037C082E8A5
:100C00009FEF13969C938E9312979A01AB0167E026
:100C1000220F331F441F551F6A95D1F783E08C9331
:100C20000DC0220F331F441F551F12968D919C91AA
:100C30001397019713969C938E931297203080E020
:100C4000380780E0480780E4580758F314962D933E
:100C50003D934D935C93179708952F3F310579F499
:100C6000411551056105710519F484E08C930895CF
:100C700064FF03C081E08C9312C01C9210C02F57F8
:100C8000304013963C932E93129783E08C9387E029
:100C9000440F551F661F771F8A95D1F7706414960D
:100CA0004D935D936D937C93179708951F93DC018B
:100CB000FB019C91923008F447C08081823008F497
:100CC00043C0943051F411961C91843099F5818180
:100CD000682F70E0611B71093FC0843021F09230B1
:100CE00031F48230B9F18181882389F12DC01196C8
:100CF0001C9111978230F1F081811817D9F4129666
:100D00002D913C911397828193818217930794F0E0
:100D100028173907BCF014968D919D910D90BC91C8
:100D2000A02D2481358146815781281739074A072C
:100D30005B0718F4112341F00AC082179307A40738
:100D4000B50740F4112319F061E070E005C06FEFC2
:100D50007FEF02C060E070E0CB011F910895FC01BD
:100D600017B88081823021F487B1806C87B907C0C1
:100D7000813011F417B803C0882309F43E9A379ADA
:100D80008181882311F486B11AC0813011F4309A20
:100D90000895823011F4319A0895833019F486B1A0
:100DA00083600DC0843011F4329A0895853019F4AF
:100DB00086B1856004C0863021F486B1866086B92C
:100DC0000895873019F486B1876086B9089597B180
:100DD000907E97B997B18770892B87B9369A349BE3
:100DE000FECF349A24B135B1C90108951F93162F4F
:100DF000882359F481E060E040E00E94A90781E087
:100E000061E040E00E94A90719C0813041F460E030
:100E100041E00E94A90781E061E040E00AC0823021
:100E200069F481E060E040E00E94A90781E061E0B0
:100E300041E00E94A907812F0E94DB091F910895BC
:100E400081E060E041E00E94350781E061E041E03F
:100E50000E94350781E060E040E00E94A90781E040
:100E600061E040E00E94A9070895683008F070C072
:100E7000843008F06DC0813009F1813030F082306B
:100E8000B1F1833009F064C04BC0413059F42AB34A
:100E900081E090E002C0880F991F6A95E2F7282B45
:100EA0002ABB08952AB381E090E002C0880F991F01
:100EB0006A95E2F7809582238ABB0895413059F400
:100EC00027B381E090E002C0880F991F6A95E2F78E
:100ED000282B27BB089527B381E090E002C0880F3C
:100EE000991F6A95E2F78095822387BB0895413068
:100EF00059F424B381E090E002C0880F991F6A95ED
:100F0000E2F7282B24BB089524B381E090E002C0CF
:100F1000880F991F6A95E2F78095822384BB089514
:100F2000413059F421B381E090E002C0880F991F4D
:100F30006A95E2F7282B21BB089521B381E090E068
:100F400002C0880F991F6A95E2F78095822381BBC2
:100F50000895683008F070C0843008F06DC08130AA
:100F600009F1813030F08230B1F1833009F064C092
:100F70004BC0413059F42BB381E090E002C0880FA0
:100F8000991F6A95E2F7282B2BBB08952BB381E0BC
:100F900090E002C0880F991F6A95E2F7809582233E
:100FA0008BBB0895413059F428B381E090E002C032
:100FB000880F991F6A95E2F7282B28BB089528B35C
:100FC00081E090E002C0880F991F6A95E2F7809552
:100FD000822388BB0895413059F425B381E090E025
:100FE00002C0880F991F6A95E2F7282B25BB089548
:100FF00025B381E090E002C0880F991F6A95E2F75F
:101000008095822385BB0895413059F422B381E055
:1010100090E002C0880F991F6A95E2F7282B22BB47
:10102000089522B381E090E002C0880F991F6A956D
:10103000E2F78095822382BB08956830D0F4843033
:10104000C0F4813049F0813028F0823039F08330AB
:1010500081F406C089B305C086B303C083B301C061
:1010600080B390E002C0959587956A95E2F781700C
:10107000089580E00895843080F4813049F0813013
:1010800028F0823039F0833041F406C06ABB0895FD
:1010900067BB089564BB089561BB0895843080F4F4
:1010A000813049F0813028F0823039F0833041F4CA
:1010B00006C06BBB089568BB089565BB089562BB0D
:1010C0000895843088F4813049F0813028F08230EE
:1010D00039F0833049F406C089B3089586B3089582
:1010E00083B3089580B3089580E00895FF920F932D
:1010F0001F93F82E83E060E041E00E94A9070AEF09
:1011000010E0C8010197F1F783E062E041E00E943E
:10111000A907C8010197F1F782E06F2D0E944E08E0
:10112000C8010197F1F783E062E040E00E94A9075F
:10113000C8010197F1F71F910F91FF9008951F9338
:10114000CF93DF93EC0110E003C00E9476081F5F8D
:10115000FE01E10FF11D80818823B9F7DF91CF9166
:101160001F9108950F931F93DF93CF93CDB7DEB7F1
:1011700060970FB6F894DEBF0FBECDBF8E010F5F34
:101180001F4FB8014AE050E00E944C0AC8010E947B
:101190009F0860960FB6F894DEBF0FBECDBFCF910B
:1011A000DF911F910F910895FF920F931F93F82ED7
:1011B00083E060E040E00E94A9070AEF10E0C80168
:1011C0000197F1F783E062E041E00E94A907C801BE
:1011D0000197F1F782E06F2D0E944E08C801019738
:1011E000F1F783E062E040E00E94A907C80101979F
:1011F000F1F71F910F91FF90089581E00E94D408AC
:101200000895813039F0813050F0823029F08330F8
:1012100031F404C0605C03C0605F01C0605B862F76
:1012200080680E94D40808950F931F938A010E943A
:101230000109C8010E949F081F910F91089583E042
:1012400060E041E00E94350783E062E041E00E94F7
:10125000350782E06FEF0E943B0888E30E94D408C4
:101260008CE00E94D40881E00E94D40808950F9376
:101270001F938C0182E00E94E706F8010081023092
:1012800091F4BC0180E090E00E94410420E030E055
:1012900046E153E40E9417022AE037ED43E250E4AE
:1012A0000E94170211C0013021F0002311F080E0EC
:1012B00014C0BC0180E090E02EEE32E040E050E04F
:1012C0000E94F6090E94410420E030ED4FEB54E407
:1012D0000E9411030E944100862F1F910F910895D3
:1012E000EF92FF920F931F93DF93CF9300D0CDB770
:1012F000DEB70E941F090E94200783E08A8382E0F4
:1013000089838E010F5F1F4FC8010E94AF06FF2423
:10131000E02E012F01C0F12E8E2D902F0E94370953
:10132000182F8F15C1F38E3168F40E94FD0880E0FC
:1013300060E00E94F60680E063E00E94010980E61A
:1013400090E026C08E518E3128F40E94FD0881E085
:1013500069E116C0812F8C538E3128F40E94FD085C
:1013600081E062E30DC0812F8A558E3128F40E94FE
:10137000FD0881E06BE404C00E94FD0881E064E6A2
:101380000E94F60680E063E00E94010986E790E093
:101390000E949F0881E063E00E9401098BE690E0D3
:1013A0000E949F08812F90E00E94B20883E790E09E
:1013B0000E949F08B0CF12BE90E0A0E0B0E0BC0158
:1013C000CD010E94410420E030E048EC52E40E944C
:1013D000110320E030E04FE753E40E9417020E941F
:1013E00041006CBFBB9A8AE683BF0895629FD0011B
:1013F000739FF001829FE00DF11D649FE00DF11DD0
:10140000929FF00D839FF00D749FF00D659FF00D7E
:101410009927729FB00DE11DF91F639FB00DE11D6B
:10142000F91FBD01CF01112408952F923F924F92D1
:101430005F926F927F928F929F92AF92BF92CF9264
:10144000DF92EF92FF920F931F93CF93DF93CDB76D
:10145000DEB7CA1BDB0B0FB6F894DEBF0FBECDBFE5
:1014600009942A88398848885F846E847D848C84B6
:101470009B84AA84B984C884DF80EE80FD800C81BF
:101480001B81AA81B981CE0FD11D0FB6F894DEBFA2
:101490000FBECDBFED010895FB019F01E8944230DE
:1014A000C4F04532B4F44A3029F497FB1EF4909509
:1014B00081959F4F642F77270E947D0A805D8A3334
:1014C0000CF0895D8193CB010097A1F716F45DE2E2
:1014D00051931082C9010C946D0ADC01FC01672F45
:1014E00071917723E1F7329704C07C916D937083FB
:1014F0006291AE17BF07C8F30895AA1BBB1B51E149
:1015000007C0AA1FBB1FA617B70710F0A61BB70B73
:10151000881F991F5A95A9F780959095BC01CD0118
:061520000895F894FFCFCE
:1015260046414E206973204F46460054454D502093
:101536003D200020430046414E206973204F4E0057
:101546000000000000000000000102020303030384
:10155600040404040404040405050505050505053D
:10156600050505050505050506060606060606061D
:101576000606060606060606060606060606060605
:1015860006060606060606060707070707070707ED
:1015960007070707070707070707070707070707D5
:1015A60007070707070707070707070707070707C5
:1015B60007070707070707070707070707070707B5
:1015C600070707070707070708080808080808089D
:1015D6000808080808080808080808080808080885
:1015E6000808080808080808080808080808080875
:1015F6000808080808080808080808080808080865
:101606000808080808080808080808080808080854
:101616000808080808080808080808080808080844
:101626000808080808080808080808080808080834
:101636000808080808080808080808080808080824
:0816460008080808080808085C
:00000001FF
