:100000000C942A000C9447000C9447000C94470071
:100010000C9447000C9447000C948A010C94470000
:100020000C9447000C9447000C9447000C94470034
:100030000C9447000C9447000C9447000C94470024
:100040000C9447000C9447000C9447000C94470014
:100050000C94470011241FBECFE5D8E0DEBFCDBF12
:1000600010E0A0E6B0E0EEEBF6E002C005900D92E5
:10007000AC36B107D9F710E0ACE6B0E001C01D9294
:10008000A337B107E1F70E94AD020C945D030C9415
:100090000000683008F070C0843008F06DC0813016
:1000A00009F1813030F08230B1F1833009F064C061
:1000B0004BC0413059F42AB381E090E002C0880F70
:1000C000991F6A95E2F7282B2ABB08952AB381E08D
:1000D00090E002C0880F991F6A95E2F7809582230D
:1000E0008ABB0895413059F427B381E090E002C003
:1000F000880F991F6A95E2F7282B27BB089527B32D
:1001000081E090E002C0880F991F6A95E2F7809520
:10011000822387BB0895413059F424B381E090E0F5
:1001200002C0880F991F6A95E2F7282B24BB089517
:1001300024B381E090E002C0880F991F6A95E2F72E
:100140008095822384BB0895413059F421B381E026
:1001500090E002C0880F991F6A95E2F7282B21BB17
:10016000089521B381E090E002C0880F991F6A953D
:10017000E2F78095822381BB0895683008F070C053
:10018000843008F06DC0813009F1813030F0823068
:10019000B1F1833009F064C04BC0413059F42BB346
:1001A00081E090E002C0880F991F6A95E2F7282B42
:1001B0002BBB08952BB381E090E002C0880F991FFC
:1001C0006A95E2F7809582238BBB0895413059F4FC
:1001D00028B381E090E002C0880F991F6A95E2F78A
:1001E000282B28BB089528B381E090E002C0880F37
:1001F000991F6A95E2F78095822388BB0895413064
:1002000059F425B381E090E002C0880F991F6A95E8
:10021000E2F7282B25BB089525B381E090E002C0CA
:10022000880F991F6A95E2F78095822385BB089510
:10023000413059F422B381E090E002C0880F991F49
:100240006A95E2F7282B22BB089522B381E090E063
:1002500002C0880F991F6A95E2F78095822382BBBE
:1002600008956830D0F48430C0F4813049F0813092
:1002700028F0823039F0833081F406C089B305C09C
:1002800086B303C083B301C080B390E002C09595EC
:1002900087956A95E2F78170089580E0089584302B
:1002A00080F4813049F0813028F0823039F0833099
:1002B00041F406C06ABB089567BB089564BB089506
:1002C00061BB0895843080F4813049F0813028F09A
:1002D000823039F0833041F406C06BBB089568BBAF
:1002E000089565BB089562BB0895843088F4813019
:1002F00049F0813028F0823039F0833049F406C06B
:1003000089B3089586B3089583B3089580B308959B
:1003100080E008951F920F920FB60F9211242F9331
:100320003F934F935F936F937F938F939F93AF937D
:10033000BF93EF93FF93E0916C00F0916D003097C5
:1003400009F00995FF91EF91BF91AF919F918F9126
:100350007F916F915F914F913F912F910F900FBEC1
:100360000F901F901895FC018E988CE08FBD8EB574
:10037000887F9081892B8EBD9EB581818295880F63
:10038000880F807C9F7B892B8EBD1DBC1CBC17BC3D
:1003900016BC89B7806289BF089590936D008093E1
:1003A0006C0008959EB58295880F880F807C9F7B96
:1003B000982B9EBD089526B537B5C90108951DBC7B
:1003C0001CBC08951FBC1EBC1DBC1CBC17BC16BCAD
:1003D00089B78F7D89BF0895FF920F931F93F82EE1
:1003E00081E060E041E00E94BD0000ED17E0C8013F
:1003F0000197F1F781E061E041E00E94BD00C80192
:100400000197F1F780E06F2D0E946201C80101970A
:10041000F1F781E061E040E00E94BD00C801019772
:10042000F1F71F910F91FF9008951F93CF93DF93E2
:10043000EC0110E003C00E94EC011F5FFE01E10F20
:10044000F11D80818823B9F7DF91CF911F91089525
:100450000F931F93DF93CF93CDB7DEB760970FB69F
:10046000F894DEBF0FBECDBF8E010F5F1F4FB801E6
:100470004AE050E00E942C03C8010E9415026096D9
:100480000FB6F894DEBF0FBECDBFCF91DF911F91A5
:100490000F910895FF920F931F93F82E81E060E073
:1004A00040E00E94BD0000ED17E0C8010197F1F7A0
:1004B00081E061E041E00E94BD00C8010197F1F7D1
:1004C00080E06F2D0E946201C8010197F1F781E081
:1004D00061E040E00E94BD00C8010197F1F71F9163
:1004E0000F91FF90089581E00E944A0208958130A3
:1004F00039F0813050F0823029F0833031F404C07B
:10050000605C03C0605F01C0605B862F80680E94F2
:100510004A0208950F931F938A010E947702C8012F
:100520000E9415021F910F91089581E060E041E063
:100530000E94490081E061E041E00E94490080E0C2
:100540006FEF0E944F0188E30E944A028CE00E94F4
:100550004A0281E00E944A0208950F931F930E946D
:1005600095020E94DA0280E690E00E9415028FB7A1
:1005700080688FBF0E94D3028C0180E06CE00E94F3
:100580007702C8010E942802F5CF81E065E041E0D2
:100590000E94BD008AE18A95F1F781E065E040E0C4
:1005A0000E94BD0008950E94C50280917100909143
:1005B00072000895DF93CF9300D0CDB7DEB782E00D
:1005C000898381E08A83CE0101960E94B30185EF81
:1005D00092E00E94CD0181E065E041E00E94490087
:1005E0000F900F90CF91DF91089580916E008F5FF3
:1005F00080936E00813031F40E94DF0180E00E9420
:10060000D2010895823099F40E94DB01909370002A
:1006100080936F006AE370E00E9418037093720089
:100620006093710010926E0081E00E94D2010895E3
:10063000AA1BBB1B51E107C0AA1FBB1FA617B70708
:1006400010F0A61BB70B881F991F5A95A9F7809524
:100650009095BC01CD010895FB019F01E8944230C3
:10066000C4F04532B4F44A3029F497FB1EF4909557
:1006700081959F4F642F77270E941803805D8A33EE
:100680000CF0895D8193CB010097A1F716F45DE230
:1006900051931082C9010C944D03DC01FC01672FBA
:1006A00071917723E1F7329704C07C916D93708349
:0E06B0006291AE17BF07C8F30895F894FFCF0C
:0C06BE0044495354414E43453D20000088
:00000001FF
